:100000000C9490010C94A2010C94A2010C94602118
:100010000C94641F0C94A2010C94A2010C94A201F4
:100020000C94A2010C94A2010C94A2010C94C8326D
:100030000C94A2010C94A2010C94A2010C94A201B4
:100040000C9480320C94A2010C9459030C94E80196
:100050000C94A2010C94A2010C94A2010C94A20194
:100060000C94A2010C94A2018F039103CA03CA034A
:10007000CA03CA03CA03CA03CA03CA03CA03CA0318
:10008000970399039B039D039F03A103A303A50368
:10009000CA03A903AB03AD03AF03B103B303CA03A0
:1000A000B503830989098C098F0994099C09A4095E
:1000B0004A0A4A0A4A0AB109B409BD09C6094A0AE4
:1000C0004A0A4A0A4A0A4A0A4A0AD209DC09E809DB
:1000D000F009F309FC09050A0B0A4A0A4A0A140A3C
:1000E0001D0A280A5B0C15181518650C720C7F0C7C
:1000F0008C0C1518900C15189E0C1518A80CB20C29
:10010000BC0CE60CF30C1518CC0CD90C084AD73BE8
:100110003BCE016E84BCBFFDC12F3D6C74319ABDD6
:1001200056833DDA3D00C77F11BED9E4BB4C3E91FA
:100130006BAAAABE000000803F05A84CCDB2D44EE9
:10014000B93836A9020C50B9918688083CA6AAAAEB
:100150002ABE000000803F000D0A4772626C203109
:100160002E3166205B27242720666F722068656C1D
:10017000705D0D0A00244E005B4F50543A005B56F0
:1001800045523A312E31662E3230313730333032EB
:100190003A005B544C4F3A005B4739323A003330F7
:1001A000003238005B4700204700204D00205300FC
:1001B00020460020540033382E005B47433A470066
:1001C0005B484C503A2424202423202447202449EF
:1001D00020244E2024783D76616C20244E783D6C9E
:1001E000696E6520244A3D6C696E652024534C502D
:1001F000202443202458202448207E2021203F20F2
:100200006374726C2D785D0D0A00536C65657069BE
:100210006E6700526573746F72696E6720737069E0
:100220006E646C6500526573746F72696E672064EA
:10023000656661756C74730050676D20456E64006F
:10024000436865636B204C696D697473004368652E
:10025000636B20446F6F720044697361626C656404
:1002600000456E61626C65640043617574696F6E10
:100270003A20556E6C6F636B656400272448277CB9
:100280002724582720746F20756E6C6F636B0052A3
:100290006573657420746F20636F6E74696E756525
:1002A000005B4D53473A00414C41524D3A007C416E
:1002B0003A007C4F763A007C57434F3A007C506EB0
:1002C0003A007C46533A007C42663A007C57506FB5
:1002D000733A007C4D506F733A00536C6565700043
:1002E000446F6F723A00436865636B00416C6172E2
:1002F0006D00486F6D65004A6F6700486F6C643A27
:100300000052756E0049646C65000D0A005B505226
:10031000423A006572726F723A006F6B0D0A00000C
:1003200011241FBECFEFD8E0DEBFCDBF27E0A0E095
:10033000B1E001C01D92AD3EB207E1F70E943E045C
:100340000C94253B0C940000CF93DF93239AC0EBD1
:10035000D0E083E0888384E08093B100259A2091E7
:10036000740230917502409176025091770260914B
:1003700070027091710280917202909173020E94DA
:1003800055369B01AC0160E070E08EE793E40E947B
:10039000553760930001709301018093020190939F
:1003A000030188818F778883DF91CF9108950E9420
:1003B000991D0E948D1C80911302811108C00E941A
:1003C0007D27892BB1F780911202883091F308952F
:1003D0001F920F920FB60F9211248F939F93EF935A
:1003E000FF9380916E01E82FF0E0EB5FFE4F90816C
:1003F0009093C6008F5F893609F480E080936E0188
:1004000090910401891305C08091C1008F7D809374
:10041000C100FF91EF919F918F910F900FBE0F90B0
:100420001F901895E091040191E09E0F993631F4E8
:1004300090E004C020919C0624FD0FC020916E0125
:100440002917C1F3F0E0EB5FFE4F80839093040126
:100450008091C10080628093C10008959091130241
:10046000911108C0811102C0459802C086FD459ACD
:1004700010921D0208954F925F926F927F928F9219
:100480009F92AF92BF92CF92DF92EF92FF926B0159
:100490007C018090740290907502A0907602B090DA
:1004A00077024090700250907102609072027090DA
:1004B0007302A3019201C501B4010E946D3987FF47
:1004C00019C060911B0270E080E090E00E94FF374D
:1004D0002AE037ED43E25CE30E94AD39A7019601C3
:1004E0000E94AD396B017C01A30192010E946D391C
:1004F00087FD0AC040921F025092200260922102A2
:10050000709222028FEF47C0A5019401C701B60186
:100510000E944B371816E4F020E030E0A901C70133
:10052000B6010E944B37811109C010921F02109230
:10053000200210922102109222022DC080921F02EE
:1005400090922002A0922102B092220281E023C068
:10055000C0921F02D0922002E0922102F092220269
:10056000A5019401C701B6010E94553620910001F2
:100570003091010140910201509103010E94AD3977
:100580000E943A3820E030E040E85FE30E945636AF
:100590000E94CE37862FFF90EF90DF90CF90BF90D4
:1005A000AF909F908F907F906F905F904F90089545
:1005B0008093B300811104C08091B0008F7703C095
:1005C0008091B00080688093B000089590911302EC
:1005D000911126C081110EC010921F0210922002AC
:1005E00010922102109222028091B0008F778093A6
:1005F000B00014C0803111F42D9801C02D9A909153
:10060000780291FF05C0803219F440E050E0BA0151
:10061000CB01BA010E943B020E94D80210921D0237
:100620000895CF92DF92EF92FF92CF9390911202B2
:10063000923079F06A017B01C82F0E94D701B7017F
:10064000A6018C2FCF91FF90EF90DF90CF900C946C
:10065000E602CF91FF90EF90DF90CF90089561EF89
:1006600071E080EA92E00C94141F80919C0684FD56
:100670001FC080E10E94D01E8091B0008F778093D0
:10068000B000459890911202892F8C7221F48091CC
:100690001602867069F0943031F480919D068111C4
:1006A00005C086E001C083E00E94C01E0C94A03209
:1006B00008951F920F920FB60F9211242F933F931C
:1006C0004F935F936F937F938F939F93AF93BF935A
:1006D000EF93FF93E091C600E13271F028F4E83126
:1006E00079F40E94350356C0EF3321F0EE3741F420
:1006F00082E003C081E001C088E00E94D01E4AC0B1
:10070000E7FF37C08E2F90E0FC01E458F109ED318E
:10071000F10508F03FC0EC5CFF4F0C94F83A80E222
:10072000ECCF8091120285FF35C080E4E6CF81E0F6
:100730000DC082E00BC084E009C088E007C080E102
:1007400005C080E203C080E401C080E80E94B71EBB
:1007500021C081E00BC082E009C084E007C088E0CE
:1007600005C080E103C080E201C080E40E94AE1EAB
:1007700011C0A091120381E08A0F813809F480E052
:1007800090911303891731F0B0E0A159BE4FEC935B
:1007900080931203FF91EF91BF91AF919F918F9141
:1007A0007F916F915F914F913F912F910F900FBE6D
:1007B0000F901F901895FF920F931F93CF93DF9385
:1007C0008C01EB018091780285FF26C0F090120227
:1007D00080E2F81629F1C8010E94D91E8823E1F0B1
:1007E00081E08093150288E0F81641F00E943503FD
:1007F00082E00E94C01E0E948D1C0EC088E00E94F4
:10080000D01E0E948D1C80911302811105C0809121
:1008100012028111F6CFEACF80911202823041F1AB
:100820000E948D1C80911302811122C090911603A9
:1008300080911503981303C00E94991DF1CFBE014A
:10084000C8010E947922811113C08091780281FF32
:100850000FC0888584FF0CC04C815D816E817F81D3
:1008600080E1DF91CF911F910F91FF900C941103C4
:10087000DF91CF911F910F91FF900895CF93DF9358
:10088000CDB7DEB765970FB6F894DEBF0FBECDBF0C
:100890008091C00082608093C0001092C50010E17A
:1008A0001093C4008091C10088698093C1008FEFCC
:1008B0000E949E278AB18C618AB9209A8AB1806E83
:1008C0008AB987B1886187B9809181008F7E8093D2
:1008D00081008091810088608093810080918000F8
:1008E0008C7F80938000809180008F708093800047
:1008F00080916E00887F80936E0014BC15BC80913F
:100900006E00816080936E0087B1887F87B988B15F
:10091000876088B980916C00876080936C008091BB
:100920006800826080936800E1EFF1E0DF011D92D2
:100930001A95E9F7789410921202B2E12B2EB2E0E8
:100940003B2E11E0C12E12E0D12E80911202F10156
:1009500021E111922A95E9F78093120284E68093AF
:10096000190280931A0280931B0280E1D6011D9226
:100970008A95E9F71092110210929C0610929D063A
:1009800010929E0610929F0680911203809313038B
:100990008CE4E8E8F2E011928A95E9F760EB72E006
:1009A00080E00E940929811103C087E00E94BB20DA
:1009B0000E94A4013D9A45980E94AF213D98459A16
:1009C00080E00E949C1F0E948D270E94FC310E94A3
:1009D000F5210E942F0388E591E00E94A8208091D4
:1009E0001202817891F081EA92E00E94A8208BE7C0
:1009F00092E00E94A8200E943121F1E0F0931202BF
:100A000010E000E0A2E0EA2E29C0109212020E943B
:100A1000CF20F6CFE92FF0E0E159FE4F80819F5FB4
:100A2000913809F490E0909313038F3FE9F08A30F6
:100A300021F50E948D1C80911302811186CFE12F38
:100A4000F0E0E356F84F1082202F2170F22E00FFC5
:100A500018C08BE00E94BB2010E000E090911303CF
:100A6000809112039813D6CF0E94991D0E948D1C6D
:100A700080911302882391F368CF8D3009F01FC550
:100A8000D8CF80919D07882309F416C5843209F0D8
:100A90000BC581E08D8B80919E07833409F134F47E
:100AA000882361F0843209F00FC21AC08A3459F0E9
:100AB0008835B1F0873409F007C212C080EC91E0AC
:100AC0000E94A820EFC4809112028F7D09F0DAC441
:100AD00080919F078D3309F0DDC40E94850AD5C43B
:100AE00090919F079111D6C4833409F4BBC11CF4C3
:100AF000843241F0D7C4873409F415C1883509F42C
:100B0000D1C1D0C480911202887109F0BBC4609138
:100B1000630270E00E941D216091660270E081E036
:100B20000E941D216091640270E082E00E941D21FC
:100B30006091650270E083E00E941D21609178025F
:100B400062FB662760F970E084E00E941D216091DD
:100B5000780266FB662760F970E085E00E941D213F
:100B600080917802082E000C990B692F661F66276A
:100B7000661F70E086E00E941D216091670270E0B0
:100B80008AE00E941D2140916802509169026091A3
:100B90006A0270916B0223E08BE00E94FD2040917D
:100BA0006C0250916D0260916E0270916F0223E0B1
:100BB0008CE00E94FD2060917802617070E08DE011
:100BC0000E941D216091780265FB662760F970E044
:100BD00084E10E941D216091780263FB662760F921
:100BE00070E085E10E941D2160917802629561703C
:100BF00070E086E10E941D216091790270E087E13A
:100C00000E941D2140917A0250917B0260917C02EA
:100C100070917D0223E088E10E94FD2040917E02D8
:100C200050917F02609180027091810223E089E1FE
:100C30000E94FD2060918202709183028AE10E94ED
:100C40001D2140918402509185026091860270912D
:100C5000870223E08BE10E94FD20409170025091B9
:100C60007102609172027091730220E08EE10E9425
:100C7000FD2040917402509175026091760270914E
:100C8000770220E08FE10E94FD2060917802669556
:100C9000617070E080E20E941D21F4E66F2E512CFD
:100CA00003E212E0E4E04E2E460C762C92E0591658
:100CB000A1F0A3E05A16F9F0B1E05B1631F0F801AB
:100CC00040815181628173811EC0D80150964D913F
:100CD0005D916D917C91539716C020E030E041E624
:100CE00055E4F80160A171A182A193A10E9455373A
:100CF000AB01BC0108C0D801D0964D915D916D91BA
:100D00007C91D397705823E0872D0E94FD200C5FC3
:100D10001F4F73947410CACFBAE06B0E5394ECE873
:100D20006E12BECFBFC38AEB91E00E94A8208091D3
:100D300088028C3838F086EB91E00E94A8208091E0
:100D400088028A580E94822087EA91E00E94A820A7
:100D500080918E028A5C0E94822087EA91E00E9444
:100D6000A82080918C028F5E0E94822087EA91E009
:100D70000E94A82080918A02F5E1F81B8F2F0E9423
:100D8000822087EA91E00E94A82080918B02865AF7
:100D90000E94822087EA91E00E94A8208091890227
:100DA0002EE5281B822F0E94822080918F028823AB
:100DB00099F08AEA91E00E94A82080918F02833006
:100DC00029F08E3139F0823039F404C080E30E947A
:100DD000120202C00E9482208AEA91E00E94A820AA
:100DE00080919102803131F0803231F0811107C061
:100DF00085E303C083E301C084E30E9412028AEA10
:100E000091E00E94A82080919002882311F088E34D
:100E100001C089E30E94120283EB91E00E94A820A6
:100E200080919B020E94822080EB91E00E94A8208A
:100E300060919702709198028091990290919A0224
:100E40000E944B208DEA91E00E94A82060919302BD
:100E500070919402809195029091960240E00E94D8
:100E6000AE1F0EC080911202823069F40E943503D9
:100E700081EA92E00E94A82088E592E00E94A820E2
:100E80000E9431210FC38111FDC2E092120281EA5A
:100E900092E00E94A82081E692E00E94A8200E9491
:100EA00031213BC080911202813009F0FBC281EAFE
:100EB00092E00E94A82089E692E00E94A8200E9469
:100EC000312110921202EEC290911202923008F07B
:100ED000D9C2893409F4A0C034F4833271F0883463
:100EE00009F45AC043C1823509F4EAC0833509F4D4
:100EF00081C08E3409F03AC113C180919F078111DE
:100F0000C9C210E0BE016F5F7F4F812F0E94092987
:100F1000811105C087E00E94BB20F12CC3C284EA86
:100F200091E00E94A820163029F0173041F48EE994
:100F300091E002C081EA91E00E94A82004C086E30B
:100F4000810F0E9482208AE30E941202CE01019644
:100F50000E9469200E9431211F5F183099F688E9AC
:100F600091E00E94A82080EC92E00E9469200E94FB
:100F7000312182E991E00E94A8206091D002709115
:100F8000D1028091D2029091D3020E945A200E94F5
:100F900031210E94362186C28091780284FF6FC27F
:100FA00084E08093120280919F07811173C20E9496
:100FB000A42184E00E947E2583E00E947E250E9479
:100FC0008D1C80911302811106C00E942F030E9484
:100FD000F5210E94AF2180911302811163C210920A
:100FE00012020E94A03280919F0781115BC20E9471
:100FF000CF2093CF80919F078C3409F04BC2809112
:10100000A007803509F046C28091A107811142C234
:1010100080E80E94D01E46C2ED8A80919F07811110
:1010200033C040E550E06EEA73E08DE997E00E943E
:101030005D28892B51F410929D0740E550E06DE941
:1010400077E08EEA93E00E94B8288EE791E00E9454
:10105000A8200E947F1E0E94312188E791E00E9413
:10106000A82086E50E9412028CE40E9412028CE203
:101070000E9412028FE00E9482208CE20E941202E3
:1010800080E80E948220FCCE93E09D8B8D3309F096
:1010900001C283E0282F30E0F901E356F84F908138
:1010A000D901A656B84F9C938F5F90819111F2CFD2
:1010B0008D8B40E550E06DE977E08EEA93E0DCC18E
:1010C00080919F07833509F0E5C18091A0078435A1
:1010D00009F0E0C18091A1078D3309F0DBC1809157
:1010E000A3078111D7C18091A207843239F08A32D7
:1010F00039F0833209F0CEC182E003C081E001C043
:101100008FEF0E949E2781EA92E00E94A82085E24C
:1011100092E00E94A8200E9431210E943503C2C1A2
:10112000ED8A80919F0781111DC010E0812F0E94E0
:101130008C1E811104C087E00E94BB200EC085E791
:1011400091E00E94A820812F0E9482208DE30E94BE
:1011500012020E947F1E0E94B7201F5F123009F406
:10116000A1C1E4CF91118EC111E001C010E0BE0118
:101170006F5E7F4FCE0145960E94A135811103C05D
:1011800072E0F72E8FC1ED8981E08E0F8D8BF0E03C
:10119000E356F84F90819D3309F07CC1112371F122
:1011A000482F50E0282F30E0F901E356F84F9081A6
:1011B000241B350BD901A356B84F9C938F5F9081A8
:1011C0009111F0CF8D8B0E94850A81115EC16989D2
:1011D0007A898B899C890E94903A0E94CE37162F7B
:1011E0000E94D701A1E51A9FC001112440E550E0FB
:1011F0006DE977E09D5F0E94B8288FCEBE016F5FDA
:101200007F4FCE0145960E94A135882309F4B8CFBF
:10121000ED89F0E0E356F84F808181113BC1898868
:101220009A88AB88BC8820E030E04FE753E4C501E2
:10123000B4010E946D3918160CF42CC149805A80F3
:101240006B807C80C501B4010E94CE37062F20E060
:1012500030E0A901C301B2010E944B3787FD17C1DD
:10126000043608F440C0045680E0043098F510E0DD
:10127000000F111F000F111F823059F0F801833049
:10128000F1F0813019F0ED5DFD4F1FC0ED5CFD4FB9
:101290001CC00D5B1D4F20E030E040E752E4C3016D
:1012A000B2010E94AD3920E030E040E752E40E94F4
:1012B000AD39F8016083718382839383D2C0ED5A84
:1012C000FD4F77FA709477F8709440825182628271
:1012D0007382C7C08F5F0A3008F4DCC0843009F421
:1012E000D9C00A50C2CFC301B2010E94903A0E94F5
:1012F000CE3710E00132110508F0CCC0F801EF5AEA
:10130000FF4F0C94F83A633008F4C7C0609363024F
:10131000A8C060936602A5C06093640202C0609397
:1013200065020E943F329DC080917802662311F0D1
:10133000846095C08B7F93C080917802662311F002
:1013400080648DC08F7B8BC080917802662311F002
:10135000806801C08F778093780280E00E949C1F94
:1013600080C0609367027DC040926802509269021B
:1013700060926A0270926B0274C040926C0250924A
:101380006D0260926E0270926F026BC08091780263
:10139000662311F0816001C08E7F809378020E94E5
:1013A000501F5FC080917802662321F084FF78C0CF
:1013B000806255C08F7D53C080917802662311F002
:1013C000886001C0877F809378020E94AF2149C066
:1013D00080917802662311F0806141C08F7C3FC00C
:1013E000609379023EC040927A0250927B026092F2
:1013F0007C0270927D0235C040927E0250927F0244
:1014000060928002709281022CC070E0709383021F
:101410006093820226C040928402509285026092BC
:101420008602709287021DC0409270025092710233
:10143000609272027092730208C0409274025092DD
:10144000750260927602709277020E94A40109C030
:1014500080917802662311F0826001C08D7F8093B5
:1014600078026AE080E090E00E94962845E650E02D
:1014700063E272E081E090E00E94B82813C055E07A
:10148000F52E10C048E0F42E0DC0F82E0BC034E04D
:10149000F32E08C023E0F22E05C096E0F92E02C01C
:1014A0008AE0F82E8F2D08C080911202817211F00F
:1014B00089E0D0CA0E94850A0E94C720CDCA0023B5
:1014C00029F0893209F0CACA0D7FC8CA813208F4EE
:1014D000C5CA8F3209F4C2CA883289F08B3389F0C9
:1014E0001F3488F4212F30E01F5F9FE9980FF90126
:1014F000E356F84F9A3108F480528083AFCA02E075
:10150000ADCA04E0ABCA01E0A9CA2F923F924F9244
:101510005F926F927F928F929F92AF92BF92CF9283
:10152000DF92EF92FF920F931F93CF93DF93CDB78C
:10153000DEB7CC54D1090FB6F894DEBF0FBECDBFD5
:101540008EE3E4EDF2E0DF011D928A95E9F78BE08E
:10155000E8E8F2E0A5EDB2E001900D928A95E1F79E
:1015600080919D07843211F00C94361881E08093AD
:10157000D5021092D60283E08E8FB1E0BFA3212C5A
:10158000312C1CAA1BAA1DA61F8E1BA29924939462
:101590007AE0C72ED12CEEE58E2E03E0F1E6AF2ED9
:1015A000F3E0BF2E8E8DE82FF0E0E356F84FE08099
:1015B000EE2009F44AC29FEB9E0D9A3110F00C9474
:1015C00005188F5F8E8FBE01665E7F4FCE014E96EF
:1015D0000E94A135882311F40C9407184A8C5B8C67
:1015E0006C8C7D8CC301B2010E94903A0E94CE3770
:1015F000162F70E080E090E00E94FF379B01AC0165
:10160000C301B2010E94553620E030E048EC52E4BC
:101610000E94AD390E941A3A0E94CE37CB01E7E40E
:10162000EE1629F0FDE4EF1609F4EAC033C11832D2
:1016300009F4C5C020F5143168F4113108F08AC0EE
:10164000143009F452C008F464C01A3009F445C0DB
:101650000C9415181C3109F440C050F4163110F0E8
:101660000C94151825E1211B2093D70226E0ACC06D
:101670001E3199F1163209F44CC00C9415181D3323
:1016800009F497C0A8F4153381F140F41B3209F432
:101690007AC0113309F477C00C9415181C3310F07C
:1016A0000C9415186AEC610F6093DB0229E08CC082
:1016B0001C3538F41A3508F053C0103581F10C94FC
:1016C00015181C3551F01F3510F00C941518282DE5
:1016D000211B2093D60225E077C0009731F42BA17F
:1016E00021110C94091831E03BA31093D402212F4F
:1016F0002D7F2C3119F01C3509F063C0009721F0C3
:101700000A9711F00C941518610F6093D40220E031
:1017100060C04BA141110C940918A2E0ABA3109337
:10172000D502163209F04FC08431910559F08E313F
:10173000910541F08832910529F08233910511F02D
:101740000C941518B6010E94C23A66576093D502F0
:1017500021E03FC06FEE610F6093D90222E034C0F8
:10176000892B31F466EA610F6093D80223E031C01F
:101770006A30710511F00C9415181A3511F40C9497
:10178000151824E026C0BBA1B1110C94091811331F
:1017900031F41092DA0228E0E3E0EBA31AC00A97D2
:1017A00011F00C9415189092DA0228E0F3E0FBA3F4
:1017B00010C0892B11F00C9415182AE00AC027E0FC
:1017C00003C020E001C021E0892B19F087E10C94CF
:1017D0003D1881E090E002C0880F991F2A95E2F73A
:1017E0002BA93CA928233923232B19F085E10C943C
:1017F0003D182BA93CA9282B392B3CAB2BABD2CEC7
:10180000892B21F7163018F4133058F015C0183012
:1018100010F40C9415181A30E8F01E3151F00C94A5
:101820001518112319F01130F9F003C00093DC02F0
:101830001BC01093DC0218C0143021F0153031F0B9
:1018400080E101C080E28093DE0202C01092DE02DD
:101850008CE00BC0193021F080E48093DD0202C0DF
:101860001092DD028DE001C08BE0A1E0B0E002C08B
:10187000AA0FBB1F8A95E2F72BA93CA92A233B2379
:10188000232B09F0B3CFEBA9FCA9EA2BFB2BFCAB74
:10189000EBAB88CE8E2DEE0C990BAA0BBB0BFC018B
:1018A000E654F109E431F10510F00C941518EE58E6
:1018B000FF4F0C94F83A4092E0025092E10260929D
:1018C000E2027092E30280E09AC04092E4025092F9
:1018D000E5026092E6027092E702FDA5F160FDA7C5
:1018E00081E08DC04092E8025092E9026092EA02E3
:1018F0007092EB022DA522602DA782E080C040925D
:10190000EC025092ED026092EE027092EF023DA561
:1019100034603DA783E073C01093F00284E06FC091
:10192000C301B2010E94C7376093F1027093F202C3
:101930008093F3029093F40285E061C04092F50237
:101940005092F6026092F7027092F80286E057C059
:101950004092F9025092FA026092FB027092FC02ED
:1019600087E04DC04092FD025092FE026092FF025D
:101970007092000388E043C020E030E04FE753E47A
:10198000C301B2010E946D39181614F40C940B189F
:101990001093010389E033C0409202035092030385
:1019A00060920403709205034F8D41604F8F8AE06F
:1019B00026C040920603509207036092080370927B
:1019C00009038F8D82608F8F8BE019C040920A03CC
:1019D00050920B0360920C0370920D039F8D9460E4
:1019E0009F8F8CE00CC040920E0350920F036092C8
:1019F000100370921103AF8DA860AF8F8DE0EE24BD
:101A0000E394F12C082E02C0EE0CFF1C0A94E2F7BE
:101A1000970122213321232B11F00C940D18F5018D
:101A200002C0F595E7958A95E2F7E0FF0BC020E04C
:101A300030E0A901C301B2010E944B3787FF02C009
:101A40000C940F182E283F28ADCDFF8DFF2329F0D1
:101A50002BA1211102C032E03BA325FE0FC08091D3
:101A6000F1029091F202A091F302B091F402813858
:101A70009649A849B10514F00C9411188FA1882338
:101A800029F020FC02C00C941B1818C08091D602CB
:101A9000813071F49BA19230E1F58091D5028035BF
:101AA000C1F18823B1F120FC02C00C941B1831C095
:101AB0008091890281112DC020FE1BC08091D70228
:101AC000813039F523E333E34BEC51E46091E002DC
:101AD0007091E1028091E2029091E3020E94AD399F
:101AE0006093E0027093E1028093E2029093E3023C
:101AF00010C08091970290919802A0919902B091A4
:101B00009A028093E0029093E102A093E202B093E4
:101B1000E30230FC10C08091930290919402A09156
:101B20009502B09196028093FD029093FE02A093DD
:101B3000FF02B09300038091D402843039F426FC74
:101B400003C08CE10C943D18E89426F88091D902EA
:101B5000882391F0813041F4A1E02296AFAF229723
:101B60001DAEB2E0BBAF0FC022961FAE2297E2E0DF
:101B7000EDAFF1E0FBAF07C022E022962FAF229736
:101B800031E03DAF1BAE8091D702813021F04BA1F7
:101B90004330B9F52DC054EDE52E52E0F52E00E0AE
:101BA00010E08F8DC82ED12CC601002E02C0959555
:101BB00087950A94E2F780FF12C023E333E34BECEE
:101BC00051E4D7019E966D917D918D919C91D19715
:101BD0000E94AD39F70166A777A780AB91AB0F5F85
:101BE0001F4FF4E0EF0EF11C04301105E9F6CFCFE2
:101BF0008091DA02813029F42F8D243011F00C9479
:101C0000131880E1E0EBF2E0DE01119601900D92F5
:101C10008A95E1F78BA99CA991FD09C09091D40206
:101C20009BA79A30C9F09C3509F4B1C018C18091C6
:101C3000DB02873018F08DE10C943D1890918E02F4
:101C4000891761F3BE016F5F7F4F0E9409298823C6
:101C500011F40C942918E2CFAF8DA11103C08AE1D1
:101C60000C943D18C10180759927892B09F469CF1F
:101C70006091F5027091F6028091F7029091F8025E
:101C80000E94903A0E94CE376730A8F68091F00209
:101C9000843141F0823011F00C94151827FE02C0F7
:101CA0000C941518BFEA2B22662319F0615069AB1A
:101CB00003C0E091DB02E9AB64EE72E089A90E9407
:101CC0000929882311F40C9429189090F00240906F
:101CD000D0025090D1026090D2027090D30204EDF5
:101CE00012E048E8C42E42E0D42EE12CF12CFF8D06
:101CF000AF2EB12CC5010E2C02C0959587950A9484
:101D0000E2F780FF36C024E192122AC0D601D896AD
:101D10002D913D914D915C91DB9758966D917D9100
:101D20008D919C915B970E945536F80126A537A5A9
:101D300040A951A90E945536D80150966D937D93C4
:101D40008D939C935397B2E0EB1213C0A3019201C1
:101D50000E945536F801608B718B828B938B09C082
:101D6000F80186A597A5A0A9B1A9808B918BA28B1C
:101D7000B38BFFEFEF1AFF0A0C5F1F4F24E0C20E78
:101D8000D11C34E0E316F10409F0B4CF37C14F8D14
:101D9000442309F464CF4090D0025090D102609067
:101DA000D2027090D30228E8A22E22E0B22E8E0139
:101DB0000F5F1F4F34EDE32E32E0F32EC12CD12CF8
:101DC000842E912CC4010C2C02C0959587950A9401
:101DD000E2F780FF29C0D8012D913D914D915C9192
:101DE000F501608D718D828D938D0E945536D701DE
:101DF0009E962D913D914D915C91D1970E945536C3
:101E0000F70166A777A780AB91ABF2E0CF1216C0BF
:101E1000A30192010E945536D7019E966D937D9342
:101E20008D939C93D1970AC0F50180AD91ADA2AD81
:101E3000B3ADF70186A797A7A0ABB1ABFFEFCF1A61
:101E4000DF0A24E0A20EB11C0C5F1F4F34E0E30E4A
:101E5000F11C44E0C416D10409F0B4CFCEC08BA16C
:101E6000833071F49BA59E3109F48FC0953309F43A
:101E7000BEC09C3109F0C1C064EE72E086E088C04B
:101E8000AF8DAA2379F3B091D802B9AB4090D002BC
:101E90005090D1026090D2027090D30298E8C92E7F
:101EA00092E0D92E04ED12E0FE0131964F01E12CB3
:101EB000F12CAA2EB12CC5010E2C02C09595879548
:101EC0000A94E2F780FD0BC0F601808D918DA28D02
:101ED000B38DF80186A797A7A0ABB1AB45C0FBA512
:101EE000F53309F441C029A921112BC0D601D89698
:101EF0002D913D914D915C91DB97F4016081718151
:101F0000828193810E945636D8019E962D913D91F3
:101F10004D915C91D1970E945636F80166A777A73C
:101F200080AB91ABF2E0EF121FC0A30192010E94BF
:101F30005636D8019E966D937D938D939C93D19741
:101F400013C0F601208D318D428D538DD8019E96A0
:101F50006D917D918D919C91D1970E945636F8019B
:101F600066A777A780AB91ABFFEFEF1AFF0A24E0DB
:101F7000C20ED11C0C5F1F4F34E0830E911C44E055
:101F8000E416F10409F097CF6DCF64EE72E087E0BC
:101F90000E940929882311F40C9429188F8D81112E
:101FA00003C019AA1BA22AC0A8E8B2E0E4EDF2E03F
:101FB00080E090E04F8D242F30E0A901082E02C070
:101FC000559547950A94E2F740FD0AC058964D9101
:101FD0005D916D917C915B97408B518B628B738B84
:101FE0000196149634968430910539F706C0809195
:101FF000D502823010F00C94171819AA8091D502DE
:102000008BA7803529F49F8D91110C9419187BC2F0
:10201000ABA1A23009F077C2BBA5B11104C0EF8D0E
:10202000E11171C22BC020E030E0A9016091E00213
:102030007091E1028091E2029091E3020E944B379D
:10204000882311F40C941B18FBA5FC3809F445C235
:1020500040F4F230A9F0F330B1F0F13009F053C29E
:102060000AC02BA52E3809F438C208F433C22F3821
:1020700009F430C248C23F8D311145C21BA243C290
:102080004FA144604FA38F8D882309F4E8CD9BAD09
:10209000092F10E0BDADAB2FB0E0B8AFAFAB81E022
:1020A00090E07C010BAC02C0EE0CFF1C0A94E2F73E
:1020B0000DAC02C0880F991F0A94E2F7E82AF92AAA
:1020C000EF8D8E2F90E08E219F21892B09F4B5C7CB
:1020D000F801EE0FFF1FEE0FFF1FEC52FD4FD8016E
:1020E000AA0FBB1FAA0FBB1FA056BD4F2D913D913C
:1020F0004D915C9166A577A580A991A90E9455365E
:102100002B013C01EFA9F8ADEE0FFF1FEE0FFF1FF3
:10211000EC52FD4FAFA9B8ADAA0FBB1FAA0FBB1F52
:10212000A056BD4F2D913D914D915C9166A577A52F
:1021300080A991A90E9455364B015C016101F0E82C
:10214000CF22DD2427FEF3C0E89427F840E150E0D9
:1021500062E073E080EA92E00E94183B892B11F460
:1021600081E28BC78091D7028130B1F423E333E35E
:102170004BEC51E46091F9027091FA028091FB02FC
:102180009091FC020E94AD396093F9027093FA02BB
:102190008093FB029093FC028091F9029091FA02E5
:1021A000A091FB02B091FC028DA79EA7AFA7B8AB90
:1021B000A3019201C301B2010E94AD3929966CAF0F
:1021C0007DAF8EAF9FAF2997A5019401C501B401E2
:1021D0000E94AD392D966CAF7DAF8EAF9FAF2D971E
:1021E00020E030E040E850E46DA57EA58FA598A9D9
:1021F0000E94AD392DA53EA54FA558A90E94AD3925
:1022000029962CAD3DAD4EAD5FAD29970E94553658
:102210002D962CAD3DAD4EAD5FAD2D970E94553640
:102220006B017C0120E030E0A9010E944B3787FD63
:1022300006C7C701B6010E944C3A6B017C012D967E
:102240002CAD3DAD4EAD5FAD2D9729966CAD7DADFE
:102250008EAD9FAD29970E9456360E944C3A9B0145
:10226000AC01C701B60190580E9455376B017C0143
:102270009BA5933021F4F7FAF094F7F8F09420E05E
:1022800030E0A9016DA57EA58FA598A90E944B37C6
:1022900087FF11C0F7FAF094F7F8F0948DA59EA58A
:1022A000AFA5B8A9B0588093F9029093FA02A09311
:1022B000FB02B093FC02000F111F000F111F0C5105
:1022C0001D4FA7019601C501B4010E94AD399B01C4
:1022D000AC01C301B2010E94553620E030E040E07D
:1022E0005FE30E94AD39D8016D937D938D939C93EC
:1022F00013970FA918AD000F111F000F111F0C51DC
:102300001D4FA7019601C301B2010E94AD39A5017D
:1023100094010E94563620E030E040E05FE30E94E6
:10232000AD39F8016083718382839383ECC03DA54E
:10233000232F30E03EA72DA7E222F322EF2809F455
:1023400080C641EF24228091D702813009F47AC0FF
:10235000F801EE0FFF1FEE0FFF1FEC51FD4FC08085
:10236000D180E280F380A7019601C301B2010E94EF
:1023700055362B013C01EFA9F8ADEE0FFF1FEE0F14
:10238000FF1FEC51FD4F80819181A281B3818DA708
:102390009EA7AFA7B8AB9C01AD01C501B4010E94D7
:1023A00055364B015C01A3019201C301B2010E94A9
:1023B000AD392B013C01A5019401C501B4010E9476
:1023C000AD399B01AC01C301B2010E9456360E9497
:1023D0004C3A4B015C01A7019601C701B6010E946E
:1023E000AD396B017C012DA53EA54FA558A9CA01A9
:1023F000B9010E94AD399B01AC01C701B6010E9431
:1024000056360E944C3A6B017C016093F90270933E
:10241000FA028093FB029093FC029B01AC01C50180
:10242000B4010E9455364B015C01E894B7F82AE0EC
:1024300037ED43EA5BE3C501B4010E946D3918161C
:1024400064F161C094EDE92E92E0F92E8DA59EA570
:102450000C2C02C0959587950A94E2F780FF12C074
:1024600023E333E34BEC51E4D70150966D917D911A
:102470008D919C9153970E94AD39F701608B718BC0
:10248000828B938BFFEFCF1ADF0A24E0E20EF11C60
:1024900034E0C316D104D1F65BCF20E030E040E059
:1024A0005FE3C501B4010E946D3918160CF458CED3
:1024B0002FE632E143E85AE3C701B6010E94AD3985
:1024C0009B01AC01C501B4010E946D3918160CF4D2
:1024D00047CE19C04FA140614FA38BA58E588230C3
:1024E00018F48FA188608FA39F8D992309F4B7CB2F
:1024F00040E150E062E073E080EA92E00E94183B25
:10250000892B09F42DCE2FA12170AFA1C101A0FF0D
:1025100002C08E7D02C08E7D9C7FBBA1B111937CD9
:10252000892B09F090C58E010F5E1F4F89E0F801DD
:1025300011928A95E9F7222309F44BC08BA99CA933
:10254000867B892B09F081C58091D402853311F0F7
:1025500081117BC58091930290919402A091950284
:10256000B09196028D8B9E8BAF8BB88F909191021C
:1025700080919002892B4091E0025091E10260919C
:10258000E2027091E302498B5A8B6B8B7C8B8460E7
:10259000898F8091780285FF06C082E093E00E94D7
:1025A000D91E811154C5B80182E093E00E94DB037B
:1025B0008091120281114FC50E947D27892B09F459
:1025C0004AC580E2809312020E942A290E9489351E
:1025D00042C580917802F090910281FF26C08BA5C0
:1025E0008150833018F0FFA1F064FFA32F8D2223C8
:1025F00039F03BA1323021F44FA140684FA315C000
:1026000080E1F81212C08091880281509FA19074DD
:10261000833030F4992349F09FA190629FA305C0B5
:10262000911103C0AFA1A062AFA38091F10290917C
:10263000F202A091F302B091F40280939C02909375
:102640009D02A0939E02B0939F028091D602809338
:102650008902882311F088E0898F8091E0029091AF
:10266000E102A091E202B091E3028093970290937D
:102670009802A0939902B0939A02898B9A8BAB8BA4
:10268000BC8B8090FD029090FE02A090FF02B09063
:102690000003A501940160919302709194028091CE
:1026A0009502909196020E944B37BFA1B074EB2E19
:1026B000811103C0EFA1E5FF20C0FF2071F0FFA151
:1026C000F7FD0BC0EE2021F040E050E0BA0102C05F
:1026D000B501A4018F2D0E9411038091FD029091FC
:1026E000FE02A091FF02B0910003809393029093A9
:1026F0009402A0939502B0939602E1100CC08091D1
:10270000930290919402A0919502B09196028D8BC4
:102710009E8BAF8BB88F8091010380939B02809139
:10272000DE0290919102981751F04D895E896F8970
:10273000788D0E9411038091DE0280939102998D21
:1027400080919102892B898FF090DD028091900217
:102750008F15A9F080911202823029F00E94D701D2
:102760008F2D0E942E028091DD02811103C01092F4
:10277000900205C090919002892B80939002998DD0
:1027800080919002892B898F8091D402843099F4B2
:10279000C090F502D090F602E090F702F090F802B7
:1027A00080911202823039F00E94D70140E0C701C7
:1027B000B6010E94C6218091D90280938C0280913B
:1027C000D70280938A022BA1233071F58091DA021F
:1027D00080938D02811108C010920A0310920B039E
:1027E00010920C0310920D03C0900A03D0900B03BB
:1027F000E0900C03F0900D03A70196016091D002C8
:102800007091D1028091D2029091D3020E944B37F5
:10281000882351F0C092D002D092D102E092D2022D
:10282000F092D3020E94501F8091DB0290918E02A1
:10283000981769F080938E0280E1FE013196A0EB3B
:10284000B2E001900D928A95E1F70E94501F8091AD
:10285000D80280938B028091D4028632F1F138F451
:102860008C3109F18E31F9F08A3069F04FC08C3526
:10287000D1F1863609F441C0883209F047C060EAD8
:1028800072E087E02DC064EE72E089A90E94F5280D
:1028900080918E0239A9381339C080E1E4EEF2E06C
:1028A000A0EBB2E025C0898D8160898F4BA14423C4
:1028B00029F0B80182E093E00E94DB03B80184EEC6
:1028C00092E00E94DB0380E1E4EEF2E0A0EAB2E0F5
:1028D00001900D928A95E1F719C060EA72E086E0F6
:1028E0000E94F52813C080E1E2E0F3E0A0ECB2E042
:1028F00001900D928A95E1F707C080E1E0ECF2E0EB
:10290000DF011D928A95E9F70E94501F8091D50240
:1029100080938802803509F42AC3BBA1B23009F044
:1029200026C3813021F4BE016F5E7F4F06C0811146
:1029300009C0898D8160898FB80182E093E00E948F
:10294000DB030CC38250823008F0A1C28091F902EF
:102950009091FA02A091FB02B091FC028BA39CA380
:10296000ADA3BEA3ABAD94E0A99F70011124F70104
:10297000E056FD4FFCA7EBA797012C513D4F3AAB1A
:1029800029ABD9014D905D906D907C902081318173
:1029900042815381C301B2010E9456366BAB7CABBE
:1029A0008DAB9EABEDADB4E0EB9F8001112498019F
:1029B00020563D4F3EA72DA7C8018C519D4F9CAF7F
:1029C0008BAFDC018D909D90AD90BC90F901208182
:1029D000318142815381C501B4010E94563621964E
:1029E0006CAF7DAF8EAF9FAF219777FA709477F879
:1029F0007094D501C401B0588F8F98A3A9A3BAA32E
:102A0000F701EE5FFC4F2BA93CA94DA95EA960819F
:102A10007181828193810E9455366B017C01F8019E
:102A2000EE5FFC4F21962CAD3DAD4EAD5FAD2197D5
:102A300060817181828193810E9455364B015C01D6
:102A4000A7019601C301B2010E94AD396FAB78AF07
:102A500089AF9AAFA50194016F8D78A189A19AA140
:102A60000E94AD399B01AC016FA978AD89AD9AADDB
:102A70000E9456366FAB78AF89AF9AAFA50194012B
:102A8000C301B2010E94AD394B015C01A70196015F
:102A90006F8D78A189A19AA10E94AD399B01AC01EB
:102AA000C501B4010E9455362FA938AD49AD5AADC4
:102AB0000E94D5366B017C019FA192FF13C02DEBC4
:102AC00037E346E055EBC701B6010E946D3987FD3B
:102AD0001DC02BED3FE049EC50E4C701B6010E9458
:102AE000553612C02DEB37E346E055E3C701B6017A
:102AF0000E944B37181654F02BED3FE049EC50E4A0
:102B0000C701B6010E9456366B017C0180906C02B1
:102B100090906D02A0906E02B0906F022BA13CA12C
:102B20004DA15EA1CA01B9010E945636A5019401CA
:102B30000E945536A50194010E94AD390E944C3A7D
:102B40004B015C0120E030E040E05FE3C701B601EB
:102B50000E94AD392BA13CA14DA15EA10E94AD39CF
:102B60009F77A50194010E9455370E943A380E9430
:102B7000CE3778AF6FABDB01AB2B09F4D4CE198D18
:102B80004B01A12CB12C13FF12C0C501B4010E944E
:102B9000FD379B01AC0169897A898B899C890E94E8
:102BA000AD39698B7A8B8B8B9C8B177F198FC50105
:102BB000B4010E94FD374B015C019B01AC01C701D0
:102BC000B6010E9455376FA378A789A79AA72296C6
:102BD000EFAD2297B4E0EB9FC00111248C010056A9
:102BE0001D4FFC01EE5FFC4FD8012D913D914D91A1
:102BF0005C9160817181828193810E945536A5012B
:102C000094010E9455372D966CAF7DAF8EAF9FAF6C
:102C10002D972FA138A549A55AA5CA01B9010E942F
:102C2000AD399B01AC0160E070E080E090E40E946F
:102C300055366B017C012BEA3AEA4AE25EE36FA16A
:102C400078A589A59AA50E94AD394B015C0120E0C9
:102C500030E040E850E4C701B6010E9456369B01BF
:102C6000AC01C501B4010E94AD3925966CAF7DAFB2
:102C70008EAF9FAF259720E030E040E05FE3C701D3
:102C8000B6010E94AD3929966CAF7DAF8EAF9FAF74
:102C900029971BA222242394312CEFA9F8ADE21529
:102CA000F30509F440CEBBA1BC3008F048C02F8D1D
:102CB00038A149A15AA129966CAD7DAD8EAD9FADCD
:102CC00029970E94AD396B017C01A30192012596E1
:102CD0006CAD7DAD8EAD9FAD25970E94AD39A7013E
:102CE00096010E9456367B016C01A3019201299640
:102CF0006CAD7DAD8EAD9FAD29970E94AD394B0176
:102D00005C012F8D38A149A15AA125966CAD7DADEE
:102D10008EAD9FAD25970E94AD399B01AC01C501D9
:102D2000B4010E9455362B013C01EBA1EF5FEBA3F0
:102D3000470156018F8E98A2A9A2BAA265C0B1011F
:102D400080E090E00E94FD372FA138A549A55AA543
:102D50000E94AD396B017C010E9450376F8F78A3C0
:102D600089A39AA3C701B6010E943E3A4B015C01B8
:102D7000A9A9BAA9CD90DD90ED90FC90F7FAF09456
:102D8000F7F8F094ABADBCAD8D919D910D90BC91D9
:102D9000A02D8BA39CA3ADA3BEA3A70196016F8D0D
:102DA00078A189A19AA10E94AD392B013C012BA1E8
:102DB0003CA14DA15EA1C501B4010E94AD399B01AA
:102DC000AC01C301B2010E9456362B013C01A701A0
:102DD0009601C501B4010E94AD396B017C012BA1A4
:102DE0003CA14DA15EA16F8D78A189A19AA10E94FD
:102DF000AD399B01AC01C701B6010E9455366F8FFA
:102E000078A389A39AA31BA2A30192016BA97CA911
:102E10008DA99EA90E945636EBA5FCA560837183FF
:102E2000828393832F8D38A149A15AA121966CAD3D
:102E30007DAD8EAD9FAD21970E945636ADA5BEA546
:102E40006D937D938D939C9313972D962CAD3DADF3
:102E50004EAD5FAD2D97F8016081718182819381C4
:102E60000E945636D8016D937D938D939C93139752
:102E7000BE016F5E7F4F80EA92E00E94DB0380918B
:102E8000130281116BC0BFEF2B1A3B0A06CF898D4D
:102E90008460898F80911202823009F45FC00E94A1
:102EA000D70180911302811162C0FFA1F071FF2E42
:102EB000109217022FA123FB882780F90E949C1FE4
:102EC00086B180729091F001891749F084E00E94E8
:102ED000C01E0E948D1C80E00E949C1F48C0B8014B
:102EE00082E093E00E94DB0381E08093110282E0A4
:102EF0000E94D01E0E948D1C80911302811137C048
:102F0000809112028111F6CF80911102813081F4FB
:102F1000FF2051F080E1E1EFF1E0A1E0B2E00190AB
:102F20000D928A95E1F707C085E00E94C01E03C09C
:102F300081E0809317021092110280E00E949C1F92
:102F40000E948D1C0E94FC310E948D270E94F52159
:102F50000E9436218091170281118CC080E1E2E04D
:102F6000F3E0A0EAB2E001900D928A95E1F780913A
:102F7000DC0280938F02882309F47FC00E94D7016E
:102F800080918F0290911202833041F49230D1F1FE
:102F900088E00E94D01E0E948D1C34C081E0809386
:102FA000880210928C0210928B0210928902109269
:102FB0008E02109291021092900284E68093190280
:102FC00080931A0280931B02923091F060EB72E0C2
:102FD00080E00E9409298823E1F10E94501F40E00F
:102FE00050E0BA0180E00E94E60280E00E942E02DA
:102FF00081EA92E00E94A82088E392E00E94A82043
:103000000E94312110928F022FC081E036C082E0F1
:1030100034C088E132C086E230C089E12EC084E04D
:103020002CC08BE12AC085E228C084E126C08EE155
:1030300024C08FE122C086E120C080E21EC082E26F
:103040001CC083E21AC084E218C080E116C08FE081
:1030500014C087E012C080E1E2E0F3E0A0EAB2E051
:1030600001900D928A95E1F780E007C01E8E1FA2A5
:103070000C94BF0A0E942F037ACFC45BDF4F0FB6B8
:10308000F894DEBF0FBECDBFDF91CF911F910F919E
:10309000FF90EF90DF90CF90BF90AF909F908F9078
:1030A0007F906F905F904F903F902F9008953F9248
:1030B0004F925F926F927F928F929F92AF92BF9248
:1030C000CF92DF92EF92FF920F931F93CF93DF93F4
:1030D000CDB7DEB7E0970FB6F894DEBF0FBECDBF19
:1030E00010919D06112391F181E08093120287EAED
:1030F00092E00E94A820812F0E9482200E94B72087
:1031000085EF91E0019739F0EFE9FFE03197F1F7B2
:1031100000C00000F7CF1150123030F08FB7F89494
:1031200010929D068FBF12C081EA92E00E94A820F3
:103130008FE892E00E94A8200E94312180E10E9445
:10314000C61E80919C0684FFFCCFE8CF10919C06A0
:10315000112309F4C0C214FF04C081E0809313025C
:10316000C4C310FFC4C180E1E1EFF1E0DE0191963C
:1031700001900D928A95E1F7BE016F5D7F4FCE0100
:1031800041960E94141F8CE30E9412028091120249
:103190008830E1F058F4813099F1A8F0823099F14B
:1031A000843009F043C082EF92E03EC0803229F1C2
:1031B00018F4803171F03AC0803441F18038B1F5B3
:1031C0008AED92E031C085E093E02EC081E093E08B
:1031D0002BC08091140287FD10C08BEF92E00E94FB
:1031E000A8208091140280FF06C080E31AC082FFED
:1031F00017C085FFFACF81E314C087EF92E014C0B7
:103200008CEE92E011C086EE92E00EC080EE92E06D
:103210000E94A8208091140283FFE9CF83E301C0BC
:1032200082E30E94120202C00E94A82080916702DD
:10323000F82FF170BF2E80FF07C080911E028823F7
:1032400019F083ED92E053C04090D0025090D1022B
:103250006090D2027090D30240EB842E42E0942E14
:103260009E012F5F3F4F7901CE0141966C0101E035
:10327000F40161917191819191914F01248535857E
:10328000468557850E945636F70160837183828395
:103290009383033099F4A30192010E945636F701FB
:1032A0006083718382839383BB2051F094E0E90EA5
:1032B000F11C0F5FE4E0CE0ED11CDACFB11011C0CB
:1032C000F7012081318142815381F6016081718152
:1032D000828193810E945536F601608371838283D7
:1032E0009383043019F7B110ACCF8CEC92E00E94BC
:1032F000A820CE0141960E9469208091670281FF3B
:103300001FC087EC92E00E94A820909177068091E0
:103310001603981710F0815F01C08150891B0E942D
:1033200082208CE20E94120280911303909112037A
:10333000981710F0805801C08150891B0E9482208C
:1033400082EC92E00E94A820809112028C7749F0D2
:1033500060917F077091800780918107909182072B
:1033600003C060E070E0CB010E944B208CE20E9421
:10337000120260911F0270912002809121029091AF
:10338000220240E00E94AE1F0E948F21082F0E945F
:10339000551FF82E86B1982F90728091F001E92E7A
:1033A000E826802F8F298E2981F18DEB92E00E94F3
:1033B000A820EE2019F080E50E9412020023A1F05F
:1033C00000FF03C088E50E94120201FF03C089E5E7
:1033D0000E94120202FF03C08AE50E94120203FF4C
:1033E00003C081E40E941202FF2079F0F0FE03C0C6
:1033F00082E50E941202F1FE03C088E40E941202DC
:10340000F2FE03C083E50E94120280911E0288230F
:1034100021F0815080931E0218C0809112028C7797
:1034200011F08DE101C089E080931E0280911D02A0
:10343000811103C081E080931D0287EB92E00E941E
:10344000A820CE0101960E94692000911D02002350
:1034500021F0015000931D0242C0809112028C772E
:1034600011F083E101C089E080931D0282EB92E0BC
:103470000E94A820809119020E9482208CE20E9462
:10348000120280911A020E9482208CE20E94120293
:1034900080911B020E9482208091B00087FF05C0AE
:1034A0002D9B02C002E001C001E0459B03C0FF2448
:1034B000F39403C0002399F0F12C8EEA92E00E946D
:1034C000A820002339F0013011F483E501C083E422
:1034D0000E941202FF2019F086E40E9412028EE37D
:1034E0000E9412020E94B72081E00E94C61E812F16
:1034F000887E09F467C080911202982F937009F0BA
:1035000050C08872A1F080911402807C81F40E94E6
:103510008B3082E08093160280911202803239F45F
:1035200017FDE1C18091140280688093140280919C
:103530001202811103C091E09093140216FF07C09C
:1035400085FD05C09091140290649093140213FFBE
:1035500005C0807E19F480E18093120215FF21C01E
:1035600081EA92E00E94A8208DE492E00E94A820C7
:103570000E9431218091140287FD0EC090911202A9
:10358000903439F483FFABC1837E82608093140250
:10359000A6C1903809F0A3C1809114028062809383
:1035A000140217FF0CC080911202813029F480911F
:1035B000140285608093140280E88093120288EEE2
:1035C0000E94C61E11FF44C0812F8876F1F58091BC
:1035D0001202803471F48091140285FD0AC084FFC8
:1035E00003C01092120205C082FF03C0886080935E
:1035F000140280911202882381F084FF26C09091EA
:10360000140290FF22C0803141F480911C02882373
:1036100021F0886080931C0218C0109216020E944C
:103620007D27892B71F08091140286FD0AC01092CB
:10363000140288E0809312020E942A290E94893590
:1036400004C0109214021092120282E00E94C61E60
:1036500012FF41C080911202807D90911402882354
:10366000D9F080911502811117C097FD15C00E94F5
:103670008B3080911603809314030E94AF308091A9
:10368000160281FF05C0909114029160909314027C
:10369000897F809316021CC097FF0AC01092160201
:1036A0000E948D270E94FC310E942F030E94F52169
:1036B0008091140285FF08C08F7781608093140287
:1036C00080E48093120204C010921402109212023D
:1036D00084E00E94C61E90919E06992309F4ABC017
:1036E0008FB7F89410929E068FBF4091190290FDFB
:1036F00002C0842F01C084E691FD865F92FD8A504E
:1037000093FD8F5F94FD8150893C08F088EC8A30EE
:1037100008F48AE030911A0295FD02C0232F01C0FF
:1037200024E696FD22E397FD29E1481303C0231701
:1037300009F481C08093190220931A0210921D028D
:10374000109116033090770689E9D82E96E7E92E76
:1037500026E9F22E0EE736E3432E131509F457C07F
:10376000812E912C489CC001499C900D11249C01F4
:10377000295E3C4F5901C9010E940622562E672E30
:10378000782EC92E2D2D3E2D4F2D502F0E946D3994
:1037900018164CF42D2D3E2D4F2D502F6D2D7E2DB6
:1037A0008F2D902F08C0252D362D472D5C2D652D92
:1037B000762D872D9C2D0E94AD39F501628F738F78
:1037C000848F958F489CC001499C900D11249C01C9
:1037D000295E3C4F7901F90186A097A0A0A4B1A46D
:1037E000A5019401628D738D848D958D0E946D3934
:1037F00018162CF4F701828E938EA48EB58E1F5F5F
:10380000103109F410E0D52C73010C2DA6CF8D2DAD
:103810009E2DAF2DB02F8093980690939906A0937C
:103820009A06B0939B060E948B308091160380937A
:1038300014030E94AF3090919F06992309F448C069
:103840008FB7F89410929F068FBF20911B0290FDB6
:1038500002C0822F01C084E691FD865F92FD8A50EE
:1038600093FD8F5F94FD8150893C08F088EC8A308D
:1038700008F48AE0281749F0209116022860209366
:10388000160280931B0210921D028091120295FF76
:103890000DC0803159F420911C02211102C022E098
:1038A00003C020FF03C0246020931C02907C81F0A1
:1038B000882311F0887161F01091900216FF02C008
:1038C0001F7B01C01064812F0E942E021093900272
:1038D000809112028C7F49F00E942A2906C080E460
:1038E0008093120259CE80E229CEE0960FB6F8946A
:1038F000DEBF0FBECDBFDF91CF911F910F91FF9023
:10390000EF90DF90CF90BF90AF909F908F907F907F
:103910006F905F904F903F900895CF92DF92EF921B
:10392000FF921F93CF93DF930E9457188091140248
:10393000882309F4F6C00E947D27009771F4C09196
:10394000910280919002C82BC0909302D090940273
:10395000E0909502F090960206C0FC01C589C2A8CD
:10396000D3A8E4A8F5A88091780281FF03C080E283
:103970000E94AE1EDC2FD07311E0C074809114023F
:10398000882309F4CEC0909113029111CAC080FF20
:10399000C5C090911202292F207C09F474C082FDC9
:1039A00012C010921C0240E050E0BA0180E00E9478
:1039B000E60280E00E942E02809114028D7F8460D6
:1039C00080931402ABC09038E1F481EA92E00E9447
:1039D000A8208AE092E00E94A8200E94312140E0C5
:1039E00050E0BA0180E00E94E60280E00E942E02D0
:1039F0000E94A03280911302811193C00E94571837
:103A0000F9CF903419F48F7D8093140280911402C1
:103A100083FF84C0909191029923C1F081FD16C06B
:103A20008091780281FF06C08091160288608093A1
:103A300016020CC0B701A6018D2F0E94E60241E0DC
:103A400060E070E080E890E40E94C62180919002DE
:103A5000882371F08091140281FD0AC08C2F0E948E
:103A60002E0241E060E070E080E89FE30E94C62102
:103A70008091140281FD52C080618093140282E023
:103A80000E94D01E4BC080911C028823C9F181FF87
:103A90000DC0809191028823B1F040E050E0BA015E
:103AA00080E00E94E60210931C0238C08C70B1F1D5
:103AB0008091910281110AC080911C0283FF03C092
:103AC00082E00E94D01E10921C0228C081EA92E07F
:103AD0000E94A82083E192E00E94A8200E94312148
:103AE0008091780281FF06C08091160288608093E1
:103AF0001602E2CFB701A6018D2F0E94E602DCCFAD
:103B00008091160283FF0AC0B701A6018D2F0E9483
:103B1000E60280911602877F809316020E94571852
:103B20002DCFDF91CF911F91FF90EF90DF90CF903D
:103B300008950E947D27892B19F082E00C94D01EF5
:103B400008956F927F928F929F92AF92BF92CF9281
:103B5000DF92EF92FF920F931F93CF93DF93EB01CE
:103B60008C015B0180E1A80EB11C89E9682E96E703
:103B7000792E26E9822E3EE7932EC990D990E990BE
:103B8000F99020E030E0A901C701B6010E944B374F
:103B90008823B9F0A7019601F801608171818281C3
:103BA00093810E9455376B017C01E894F7F89301EB
:103BB000A401C701B6010E946D39181614F0360130
:103BC00047010C5F1F4FCA15DB05B9F6B301C401ED
:103BD000DF91CF911F910F91FF90EF90DF90CF90E9
:103BE000BF90AF909F908F907F906F9008954F926D
:103BF0005F926F927F928F929F92AF92BF92CF927D
:103C0000DF92EF92FF920F931F93CF93DF93EC011C
:103C1000688179818A819B81CC80DD80EE80FF8004
:103C20009B01AC010E94AD394B015C01A7019601DB
:103C3000C701B6010E94AD399B01AC01C501B401B9
:103C40000E9456367B018C01688579858A859B8523
:103C50008C849D84AE84BF849B01AC010E94AD39ED
:103C60002B013C01A5019401C501B4010E94AD39AD
:103C70009B01AC01C301B2010E9456365B016C018D
:103C80009B01AC01B701C8010E946D39181614F0F0
:103C900075018601B701C8010E944C3A6B017C0195
:103CA0009B01AC0160E070E080E89FE30E94553723
:103CB0004B015C018E01005F1F4FA50194016881DB
:103CC00079818A819B810E94AD3969937993899327
:103CD00099930C171D0789F7C701B601DF91CF91A2
:103CE0001F910F91FF90EF90DF90CF90BF90AF901A
:103CF0009F908F907F906F905F904F900895CF939B
:103D0000DF93CDE9D7E08991882319F00E94120250
:103D1000FACFDF91CF910895CF93DF9321E5829F72
:103D2000C0011124EC01DD5F40E550E0BE018DE9EA
:103D300097E00E945D28892B69F410929D070E94EC
:103D4000D70140E550E06DE977E0CE010E94B82848
:103D500080E001C081E0DF91CF9108959FB7F89492
:103D600020919F06822B80939F069FBF08959FB747
:103D7000F89420919E06822B80939E069FBF089503
:103D80009FB7F89480939D069FBF08952FB7F8942E
:103D900090919C068095892380939C062FBF08955F
:103DA0009FB7F89420919C06822B80939C069FBF1E
:103DB0000895AF92BF92CF92DF92EF92FF920F934E
:103DC0001F93CF93DF93EC0103E512E05C0180E1E8
:103DD000A80EB11CC990D990E990F99020E030E08C
:103DE000A901C701B6010E946D3918168CF0F801BF
:103DF00021913191419151918F01C701B6010E94EA
:103E00004B3787FD05C0CA15DB0521F780E001C0EF
:103E100081E0DF91CF911F910F91FF90EF90DF90A4
:103E2000CF90BF90AF9008958F929F92AF92BF9224
:103E3000CF92DF92EF92FF920F931F93CF93DF9376
:103E4000EB0123E2E22E22E0F22E8C016B0180E1F5
:103E5000C80ED11C6991799189919991F70181904E
:103E60009190A190B1907F010E94FF37A50194012C
:103E70000E945537F80161937193819391938F015B
:103E8000CC15DD0539F7DF91CF911F910F91FF9090
:103E9000EF90DF90CF90BF90AF909F908F9008955C
:103EA0000E94D70110921E02089596B1892F877043
:103EB00049F0892F8095817091FF826092FD03C047
:103EC0008460089580E008951F920F920FB60F92BC
:103ED00011242F933F934F935F936F937F938F930F
:103EE0009F93AF93BF93EF93FF930E94551F882337
:103EF00091F080FF03C00E9435030DC082FF04C013
:103F000080919C06826005C081FF05C080919C065F
:103F1000886080939C06FF91EF91BF91AF919F9134
:103F20008F917F916F915F914F913F912F910F9062
:103F30000FBE0F901F9018951092F001909178028B
:103F400097FD03C090E29093F001882331F09091A7
:103F5000F00180E289278093F00108958F929F926B
:103F6000AF92BF92CF92DF92EF92FF920F931F9387
:103F7000CF93DF93CDB7DEB72D970FB6F894DEBFA2
:103F80000FBECDBF6B017C01042F20E030E0A90102
:103F90000E944B3787FF07C08DE20E941202F7FA9A
:103FA000F094F7F8F094102F123060F020E030E039
:103FB00048EC52E4C701B6010E94AD396B017C01A7
:103FC0001250F2CF00FF0AC020E030E040E251E49E
:103FD000C701B6010E94AD396B017C0120E030E0E1
:103FE00040E05FE3C701B6010E9456360E94C73722
:103FF00010E03AE0832E912CA12CB12C61157105B3
:104000008105910591F0EE24E394F12CEC0EFD1E58
:10401000E10EF11CA50194010E94D63A605DF70102
:104020006083B901CA011F5FE9CF80E3101748F42C
:10403000E1E0F0E0EC0FFD1FE10FF11D80831F5F59
:10404000F5CF101313C0FE01E10FF11D80E3818352
:104050001F5F0CC0101303C08EE20E941202FE010B
:10406000E10FF11D80810E94120211501111F2CF57
:104070002D960FB6F894DEBF0FBECDBFDF91CF9166
:104080001F910F91FF90EF90DF90CF90BF90AF9076
:104090009F908F9008952091780220FF08C02BE810
:1040A00032E441E25DE30E94AD3941E001C040E00D
:1040B0000C94AE1F2091780220FF08C02BE832E458
:1040C00041E25DE30E94AD3944E001C043E00C945D
:1040D000AE1F0F931F93CF938C01C0E0F801619145
:1040E0007191819191918F010E945A20C33019F0F2
:1040F0008CE20E941202CF5FC43081F7CF911F91F2
:104100000F910895CF93DF93843630F06AE00E94D8
:10411000B63AC0E3C90F03C0C0E08A3030F06AE0AD
:104120000E94B63AD0E3D90F01C0D0E0805D0E9472
:104130001202DD2319F08D2F0E941202CC2329F0E8
:104140008C2FDF91CF910C941202DF91CF910895C3
:10415000CF93DF93FC018491EF012196882321F016
:104160000E941202FE01F7CFDF91CF9108958AE0FD
:1041700093E00C94A820CF93C82F83E193E00E9492
:10418000A8208C2F0E948220CF910C94B7208111FF
:1041900004C08AE193E00C94A8200C94BB20CF9338
:1041A000DF93C0E08C2F0E948C1E81110EC01092F4
:1041B0009D078EE30E9412020E947F1E8AE30E94E6
:1041C000120287E00E94BB2012C080919D078823C5
:1041D00071F00E94850AD82F8EE30E9412020E947D
:1041E0007F1E8AE30E9412028D2F0E94C720CF5F9C
:1041F000C230C1F6DF91CF910895CF92DF92EF9256
:10420000FF92CF93DF93D82F6A017B01C22F84E204
:104210000E9412028D2F0E9482208DE30E941202C2
:104220004C2FC701B6010E94AE1FDF91CF91FF90C6
:10423000EF90DF90CF900C94B720CF93DF93D82FDF
:10424000C62F84E20E9412028D2F0E9482208DE3ED
:104250000E9412028C2F0E948220DF91CF910C9439
:10426000B7208DE50E9412020C94B720CF93DF9304
:10427000CDB7DEB760970FB6F894DEBF0FBECDBFE7
:104280008DE093E00E94A82061E072E0CE010196EB
:104290000E94141FCE0101960E9469208AE30E94A9
:1042A0001202809117020E9482200E9431216096A2
:1042B0000FB6F894DEBF0FBECDBFDF91CF9108954A
:1042C0001F920F920FB60F9211242F933F934F938B
:1042D0005F936F937F938F939F93AF93BF93EF936E
:1042E000FF9380911202813049F080919D068111E7
:1042F00005C00E94350381E00E94C01EFF91EF912E
:10430000BF91AF919F918F917F916F915F914F91ED
:104310003F912F910F900FBE0F901F90189593B162
:1043200096718091780286FD02C086E198279923D4
:1043300049F091FB882780F992FD8260907119F015
:104340008C60089580E00895EBE6F0E08081897E3E
:104350008083E8E6F0E080818E7F8083089584B1D9
:10436000897E84B985B1866185B98091780283FFA1
:104370000BC080916B00866180936B008091680018
:1043800081608093680008950C94A4211F93CF93BB
:10439000DF93142F20E030E040EA51E40E94AD3971
:1043A0000E9434370E94CE37EB012097D1F08091E4
:1043B0001302811116C0111103C00E948D1C06C08A
:1043C0000E9457188091140281FD0BC02FEF80E7E7
:1043D00092E0215080409040E1F700C0000021971A
:1043E000E4CFDF91CF911F910895E1EFF1E0A8E7CD
:1043F000B6E041915191619171914D935D936D93AF
:104400007D9382E0E130F807A1F70895BF92CF9243
:10441000DF92EF92FF920F931F93CF93DF937C0174
:10442000FC0106A517A5D0A9C1A9858980FF18C0E0
:1044300060911A0270E080E090E00E94FF372AE06D
:1044400037ED43E25CE30E94AD399B01AC01B8015A
:104450008D2F9C2F0E94AD398B01D82FC92F2DC0D5
:1044600082FD17C06091190270E080E090E00E9428
:10447000FF372AE037ED43E25CE30E94AD399B0150
:10448000AC01B8018D2F9C2F0E94AD398B01D82F24
:10449000C92FF701B2A4C3A4D4A4F5A42B2D3C2D9D
:1044A0004D2D5F2DB8018D2F9C2F0E946D39181650
:1044B00024F40B2D1C2DDD2DCF2D20E030E040E825
:1044C0005FE3B8018D2F9C2F0E946D39181624F0E0
:1044D00000E010E0D0E8CFE3B8018D2F9C2FDF91F2
:1044E000CF911F910F91FF90EF90DF90CF90BF90F1
:1044F00008952F923F924F925F926F927F928F9288
:104500009F92AF92BF92CF92DF92EF92FF920F9362
:104510001F93CF93DF93CDB7DEB7C255D1090FB646
:10452000F894DEBF0FBECDBF3B0100917706202E71
:10453000312C26E3229DA001239D500D1124BA01A8
:10454000695E7C4F29967FAF6EAF2997FB01119270
:104550002A95E9F7F3012085FB01258BF3014481BE
:104560005581668177812996EEADFFAD299742ABE3
:1045700053AB64AB75AB21FF4CC020E1E1EFF1E040
:10458000DE01919601900D922A95E1F722968FAF68
:10459000229723969FAF239723E232E025963FAFE1
:1045A0002EAF2597BE016F5E7F4F61967FAF6EAFD6
:1045B0006197CE0181962F969FAF8EAF2F97E6E33E
:1045C0000E9FC00111249C01295E3C4F2D963FAFE8
:1045D0002EAF2D97605E7F4F2B967FAF6EAF2B97E0
:1045E00027967FAF6EAF279710E086E3829D9001FC
:1045F000839D300D1124C901895E9C4FFC0170968A
:104600006396FFAFEEAF63972C01F4E14F0E511CA0
:1046100044C020E1E8E7F6E0B3CF2D96EEADFFAD64
:104620002D9721933193419351932D96FFAFEEAF88
:104630002D976396EEADFFAD6397C080D180E28089
:10464000F380C216D306E406F50610F469017A0178
:104650006396EEADFFAD6397C082D182E282F382B2
:104660000E94FF37A50194010E9455372796EEADB1
:10467000FFAD279761937193819391932796FFAF35
:10468000EEAF279720E030E0A9010E944B3787FD6D
:104690004AC01F5F143009F458C02396EEADFFAD39
:1046A000239761917191819191912396FFAFEEAF24
:1046B00023972596EEADFFAD259781909190A1901F
:1046C000B1902596FFAFEEAF2597A50194010E940A
:1046D000AD390E947A396196EEADFFAD6197619375
:1046E0007193819391936196FFAFEEAF61972F968F
:1046F000EEADFFAD2F97C190D190E190F1902F9644
:10470000FFAFEEAF2F976C197D098E099F099B01B2
:10471000AC0197FF82CF22273327A901261B370B35
:10472000480B590B7ACF112331F0113031F0123090
:1047300031F081E005C080E203C080E401C080E880
:10474000F2019081892B8083A4CFCD28CE28CF2859
:1047500009F4B7C1CE01C1960E94F71D4B015C015F
:1047600026E3229DC001239D900D11249C01295E0A
:104770003C4F7901F90182A293A2A4A2B5A2BE0185
:104780006F5C7F4F83E492E00E94A11DF701668F6A
:10479000778F80A391A3BE016F5C7F4F83E392E08C
:1047A0000E94A11DF70162A773A784A795A7158989
:1047B00010FD12C0F301208131814281538113FD2C
:1047C00006C0F70126A737A740AB51AB09C0C5010A
:1047D000B4010E94AD39F70166A777A780AB91AB12
:1047E00080911603081711F011FF0DC086E3829D1A
:1047F000F001839DF00D1124E95EFC4F168A178AA3
:10480000108E118E6BC028E836E023963FAF2EAF96
:1048100023978E010F5F1F4F61E370E06C0F7D1FC8
:10482000605F7F4F2D967FAF6EAF2D97C12CD12C3F
:10483000760124960FAF249726961FAF26972396CE
:10484000EEADFFAD239781909190A190B19023960A
:10485000FFAFEEAF23972B96EEADFFAD2B974190B8
:104860005190619071902B96FFAFEEAF2B97A30103
:104870009201C501B4010E94AD399B01AC01C70191
:10488000B6010E9455366B017C01A5019401C3015C
:10489000B2010E945536F80161937193819391930F
:1048A0008F012D962EAD3FAD2D972B966EAD7FAD22
:1048B0002B972617370719F62FEE3FEF4FE75FE3E9
:1048C000C701B6010E946D3918166CF486E3829D0B
:1048D000F001839DF00D1124E95EFC4F16A217A292
:1048E00010A611A679C02FEE3FEF4FE75FEBC7018F
:1048F000B6010E944B3787FF11C086E3829DF0010D
:10490000839DF00D1124E95EFC4F89E996E7A6E945
:10491000BEE786A397A3A0A7B1A75EC024968FADDC
:10492000249726969FAD26970E94F71D24966FAD7B
:10493000249726967FAD269783E492E00E94A11DDE
:104940004B015C01A701960160E070E080E89FE305
:104950000E94553620E030E040E05FE30E94AD3930
:104960000E944C3A6B017C012091680230916902EF
:1049700040916A0250916B02C501B4010E94AD39A9
:10498000A70196010E94AD394B015C01A701960178
:1049900060E070E080E89FE30E9455369B01AC0127
:1049A000C501B4010E9455376B017C0120E030E065
:1049B000A9010E944B3787FF03C0C12CD12C76017F
:1049C00086E3829DF001839DF00D1124E95EFC4F8A
:1049D000C6A2D7A2E0A6F1A686E3829D8001839DB0
:1049E000100D1124095E1C4FF801858981FD6BC0F3
:1049F00029968EAD9FAD29970E9406226B017C01FE
:104A00008090980690909906A0909A06B0909B0688
:104A1000A50194010E946D3918162CF4A50194018A
:104A2000C501B40104C0A7019601C701B6010E94E7
:104A3000AD39F801628F738F848F958F86E3829DE5
:104A40008001839D100D1124095E1C4FF80186A082
:104A500097A0A0A4B1A4A5019401628D738D848D4B
:104A6000958D0E946D3918162CF4F801828E938E64
:104A7000A48EB58EC0929806D0929906E0929A06BE
:104A8000F0929B0680E1FE01F196A8E8B6E0019065
:104A90000D928A95E1F780E1FE017196A8E7B6E0F4
:104AA00001900D928A95E1F7809115038093770626
:104AB0008F5F803109F480E0809315030E94AF304E
:104AC00002C080E001C081E0CE5ADF4F0FB6F894FB
:104AD000DEBF0FBECDBFDF91CF911F910F91FF9031
:104AE000EF90DF90CF90BF90AF909F908F907F908E
:104AF0006F905F904F903F902F9008952F923F922C
:104B00004F925F926F927F928F929F92AF92BF92DD
:104B1000CF92DF92EF92FF920F931F93CF93DF9389
:104B2000CDB7DEB7A6970FB6F894DEBF0FBECDBFE8
:104B3000909113029111C8C18CA3FE01719689E076
:104B4000DF011D928A95E9F786E0898FE3E2F2E0C2
:104B5000FF8FEE8F5F019E01265E3F4F490100E00F
:104B600010E0C12CD12C76019CA1892F90E09BA351
:104B70008AA3802F002331F0013031F0023031F070
:104B800092E005C094E003C098E001C090E1D40138
:104B90009D934D01EAA1FBA102C0F595E7958A9589
:104BA000E2F7E0FF1BC020E030E040EC5FEBD50116
:104BB000D0966D917D918D919C91D3970E94AD3946
:104BC000362E472E582E692EA70196010E944B378C
:104BD00087FD04C0C32CD42CE52CF62C0F5F1F4F8F
:104BE000B4E0AB0EB11C0430110519F620907E0222
:104BF00030907F02409080025090810284E0A82E85
:104C0000BB24B39461EF71E0CE0101960E94141FA2
:104C100080917902682E712CFE01319621EF31E0EE
:104C200039A328A33EA32DA3DE015A964D0180E0AF
:104C300090E000E010E0B701A60170582AA13BA166
:104C4000082E02C0359527950A94E2F720FF22C06E
:104C50000F5FADA1BEA11D921D921D921C921397D4
:104C60009301082E02C0359527950A94E2F720FF9C
:104C700003C0BB2019F007C0BB2029F0C082D1823D
:104C8000E282F38204C04083518362837383D40140
:104C90002C91122B0196BFEF8B1A9B0A34962DA1F3
:104CA0003EA12C5F3F4F3EA32DA38430910531F6EA
:104CB000602F70E080E090E00E94FD370E944C3A47
:104CC0009B01AC0110931802C201B1010E94AD39E1
:104CD000698B7A8B8B8B9C8BBE016F5E7F4FCE0175
:104CE00001960E94792234E0309316020E942A290C
:104CF0000E948935BB20E9F00E948F21FE017A963F
:104D000020E030E090E06191462F412359F0AC0162
:104D1000022E02C0559547950A94E2F740FF02C063
:104D2000609516232F5F3F4F2430310561F71093B4
:104D300018020E942A2980919C06847339F11091EF
:104D40009C0614FF03C086E00E94C01E15FF03C02E
:104D500087E00E94C01EB11007C00E948F219CA155
:104D6000892339F088E003C012FF03C089E00E9464
:104D7000C01E80919D06882329F00E9435030E9461
:104D80008D1CA2C084E00E94C61E04C0812F8C71BD
:104D900009F0B0CF0E94FC31009182021091830291
:104DA0000115110549F0AFE9BFE01197F1F700C017
:104DB000000001501109F4CFB1E0BB26C9F020E09A
:104DC00030E040EA50E46091840270918502809165
:104DD0008602909187020E94AD396B017C01209080
:104DE0007A0230907B0240907C0250907D0210C08D
:104DF000C0908402D0908502E0908602F0908702F5
:104E000020907E0230907F0240908002509081027C
:104E1000AA94A110F7CEE0907902F12C8090840240
:104E200090908502A0908602B090870224013501FF
:104E300077FA709477F870948AA19BA1002E02C033
:104E4000959587950A94E2F780FF2BC0C701002E45
:104E500002C0959587950A94E2F7EE8DFF8D80FF4D
:104E60000FC020A931A942A953A9C501B4010E94CC
:104E70005636AE8DBF8D2D913D914D915C9106C002
:104E80002081318142815381C301B2010E94AD3939
:104E90000E947A39A8A1B9A16D937D938D939C93BB
:104EA00013970F5F1F4FE8A1F9A13496F9A3E8A368
:104EB0002E8D3F8D2C5F3F4F3F8F2E8F043011057D
:104EC00009F0BACF10921602A6960FB6F894DEBF7C
:104ED0000FBECDBFDF91CF911F910F91FF90EF904B
:104EE000DF90CF90BF90AF909F908F907F906F900A
:104EF0005F904F903F902F9008958091160390916E
:104F00007706981739F026E3829FC0011124895E45
:104F10009C4F089580E090E0089584E2E8E7F6E091
:104F2000DF011D928A95E9F7109216031092770619
:104F300081E080931503109214030895E3E2F2E0F8
:104F40008AE08093630289E1809366021092640292
:104F50008CE08093650281E0809367028AE097EDA0
:104F6000A3E2BCE38093680290936902A0936A0273
:104F7000B0936B028FE692E1A3E0BBE380936C02F7
:104F800090936D02A0936E02B0936F0280E090E068
:104F9000AAE7B4E48093700290937102A093720226
:104FA000B0937302109274021092750210927602FE
:104FB000109277021092790280E090E0A8ECB1E4C0
:104FC00080937A0290937B02A0937C02B0937D023F
:104FD00080E090E0AAEFB3E480937E0290937F029A
:104FE000A0938002B09381028AEF90E090938302B5
:104FF0008093820280E090E0A0E8BFE38093840287
:1050000090938502A0938602B09387021092780253
:1050100080E090E0A0EAB2E480839183A283B3832E
:1050200084839583A683B78380879187A287B3877C
:1050300084879587A687B78780E090E8ABE3B5E4DF
:10504000808B918BA28BB38B848B958BA68BB78B2C
:10505000808F918FA28FB38F848F958FA68FB78FFC
:1050600080E098ECAFE2BAE480A391A3A2A3B3A33B
:1050700084A395A3A6A3B7A380A791A7A2A7B3A72C
:1050800084A795A7A6A7B7A740E050E068EC73EC0B
:1050900040AB51AB62AB73AB80E090E0A8ECB2ECFC
:1050A00084AB95ABA6ABB7AB40AF51AF62AF73AFBC
:1050B00084AF95AFA6AFB7AF08951F93CF93DF939B
:1050C000DC01A40FB51FFC0120E0EB01C81BD90BCC
:1050D00011E0CE018E0F9F1FEA17FB07A1F0F9998F
:1050E000FECF92BD81BD1FBB80B5211108C0022E2D
:1050F000000C330B232F221F2227221F01C021E087
:10510000280F8193E6CF460F571FF999FECF52BD66
:1051100041BD81E08FBB30B581E090E0231711F0F5
:1051200080E090E0DF91CF911F910895F894F99974
:10513000FECF92BD81BD81E08FBB80B58627482F11
:10514000082E000C550B262F30E024233523232B6B
:1051500039F06F3F19F060BD84E006C084E104C0FF
:10516000882321F060BD84E28FBBF99A789408957A
:105170009F92AF92BF92CF92DF92EF92FF920F93E6
:105180001F93CF93DF935C018A017B01E40EF51E30
:10519000EB01912C6C01C61AD70ACE018C0D9D1D16
:1051A000CE15DF0589F0911008C0292D990C330B1D
:1051B000232F221F2227221F01C021E06991922E56
:1051C000960E0E949628E9CF692DC501800F911F88
:1051D000DF91CF911F910F91FF90EF90DF90CF90D3
:1051E000BF90AF909F900C9496280F931F93CF93EE
:1051F000C82F8B010E94D70121E1C29FC001112459
:1052000040E150E0B8019E5FCF911F910F910C9447
:10521000B8281F93CF93DF93182FEB0181E1189FDC
:10522000B00111247E5F40E150E0CE010E945D2874
:10523000892B59F480E1FE0111928A95E9F7BE01AC
:10524000812F0E94F52880E001C081E0DF91CF919D
:105250001F9108952F923F924F925F926F927F928B
:105260008F929F92AF92BF92CF92DF92EF92FF9276
:105270000F931F93CF93DF93CDB7DEB7EF970FB6A2
:10528000F894DEBF0FBECDBF8091160280FD2AC705
:105290009091CE0680919807981709F423C78091C2
:1052A0009B0790919C07892B09F00BC31091160264
:1052B00012FF09C08091770626E3289FC0011124C0
:1052C000895E9C4F02C00E947D2790939C0780932B
:1052D0009B0720909B0730909C072114310409F410
:1052E00001C700916907802F817000FF03C01092F1
:1052F0006907EAC0909168079F5F953009F0892F90
:1053000080936807E82EF12C36E13E9DF0013F9D29
:10531000F00D1124E650F94FF0939A07E0939907A6
:10532000D10154969C915497948BE6E18E9FC001D5
:10533000112420E030E04D915D916D917D91F90156
:10534000E80FF91FE650F94F689412F8440F551F03
:10535000661F771F1694D1F740835183628373834E
:105360002C5F3F4F2031310531F726E12E9DF001B2
:105370002F9DF00D11249F012650394FF101808996
:105380009189A289B38943E0880F991FAA1FBB1F87
:105390004A95D1F7F901808B918BA28BB38BD10108
:1053A00050966D917D918D919C9153970E94FD3700
:1053B00060936E0770936F078093700790937107E7
:1053C000F10122A133A144A155A10E9455379B01AF
:1053D000AC01609372077093730780937407909386
:1053E000750760E070E080EA9FE30E9455376093A4
:1053F00076077093770780937807909379071092D8
:105400006A0710926B0710926C0710926D0711FDDE
:1054100002C003FF1FC060918707709188078091C9
:10542000890790918A0760937F0770938007809324
:105430008107909382079B01AC010E94AD39D10195
:1054400056966D937D938D939C935997077F009308
:1054500069070FC0F10166897789808D918D0E945F
:105460004C3A60937F0770938007809381079093F5
:105470008207F6E1FE9DC001FF9D900D11249C0165
:105480002650394F7901D90155961C9280917802A6
:1054900081FF1AC0F101858985FF16C026A537A5B1
:1054A00040A951A960E070E080E89FE30E94553771
:1054B0006093930770939407809395079093960752
:1054C000E1E0D7015596EC9310927B0710927C0790
:1054D00010927D0710927E07D1015E962D913D912D
:1054E0004D915C9191972D833E834F83588760E067
:1054F00070E080E09FE30E94553769837A838B8355
:105500009C83F10142A053A064A075A0868897886F
:10551000A08CB18C11FF44C0F2E0F0937A07A50192
:1055200094010E94AD399B01AC01C301B2010E94FC
:1055300055366B017C0120E030E0A9010E944B3719
:1055400087FF1DC02D813E814F815885CA01B90159
:105550000E945636A30192010E94AD399B01AC0115
:10556000C501B4010E9455360E944C3A60938707EA
:10557000709388078093890790938A079FC1C09290
:105580007B07D0927C07E0927D07F0927E07109215
:105590008707109288071092890710928A078EC198
:1055A00010927A0740928B0750928C0760928D0779
:1055B00070928E0712FF0CC0109287071092880716
:1055C0001092890710928A07C12CD12C760124C031
:1055D000E0911603EF5FE03109F4E0E08091770697
:1055E0008E1759F026E32E9FF0011124E95EFC4F3F
:1055F000C688D788E08CF18C03C0C12CD12C7601F1
:10560000C701B6010E944C3A6093870770938807E0
:105610008093890790938A07C1010E940622698BB3
:105620007A8B8B8B9C8B9B01AC010E94AD39698777
:105630007A878B879C87A50194010E944B3787FF4F
:105640006CC029853A854B855C85C501B4010E94F3
:10565000553629813A814B815C810E94AD399B018D
:10566000AC01C301B2010E94553660938B07709361
:105670008C0780938D0790938E0720E030E0A9017E
:105680000E944B3718162CF132E030937A072D81A7
:105690003E814F815885CA01B9010E945636A30147
:1056A00092010E94AD399B01AC01C501B4010E9479
:1056B00055360E944C3A6093870770938807809311
:1056C000890790938A0780916907886080936907AA
:1056D000F5C0A701960169857A858B859C850E9416
:1056E000553629813A814B815C810E94AD396093A6
:1056F0008F07709390078093910790939207898901
:105700009A89AB89BC898093830790938407A0937F
:105710008507B093860793E0B6C0A7019601C5013F
:10572000B4010E94553629813A814B815C810E94E7
:10573000AD39A30192010E94563620E030E040E0EE
:105740005FE30E94AD396D877E878F87988B20E05D
:1057500030E0A9010E946D3918160CF097C02D8514
:105760003E854F855889C301B2010E946D391816D4
:105770000CF088C0A701960169857A858B859C8588
:105780000E94553629813A814B815C810E94AD3956
:105790009B01AC0160938F077093900780939107F2
:1057A000909392076D857E858F8598890E946D39CB
:1057B0001816BCF529893A894B895C89209383079F
:1057C000309384074093850750938607A501940181
:1057D00069857A858B859C850E944B37811104C031
:1057E00031E030937A076AC0A501940169857A8512
:1057F0008B859C850E94553629813A814B815C813D
:105800000E94AD399B01AC01C301B2010E94553623
:1058100060938B0770938C0780938D0790938E070E
:105820004DC08D859E85AF85B88980938B079093F9
:105830008C07A0938D07B0938E0780938F0790936A
:105840009007A0939107B09392072D813E814F81DD
:105850005885CA01B9010E9456362D853E854F856F
:1058600058890E94AD39A70196010E9456360E94C0
:105870004C3A6093830770938407809385079093D5
:1058800086071CC092E090937A0718C010928B078D
:1058900010928C0710928D0710928E0780918707C7
:1058A00090918807A0918907B0918A078093830718
:1058B00090938407A0938507B09386071860109390
:1058C00016028091F906A82FB0E0BE83AD8327E0D1
:1058D0002A9FF0012B9FF00D1124E153F94F809185
:1058E0006807848340919B0750919C075FAF4EAF40
:1058F000DA019296BC91BEA3FA01F3A1FFA3DA01EB
:105900009496BC91B8A7FA01F5A1F9A72091760762
:105910003091770740917807509179076EA17FA168
:105920008B2F9F2F0E9455366AAB7BAB8CAB9DAB08
:1059300020E030E0A9010E944B3787FF04C01AAA7B
:105940001BAA1CAA1DAA20918B07298730918C07BE
:105950003D8740918D07498B50918E075D8B8091DB
:1059600083078A8F909184079B8FA0918507AC8FC6
:10597000B0918607BD8FE0917A07E983F0918F0798
:10598000FAA7209190072BA7309191073CA740914F
:1059900092074DA760907F07709080074090810725
:1059A0005090820750917B075EA780917C078FA75C
:1059B00090917D0798ABA0917E07A9ABB091870726
:1059C000BFABE0918807E8AFF0918907F9AF20916C
:1059D0008A072AAF2AA53BA54CA55DA569857D85CB
:1059E00089899D890E944B37811103C032E03EAB0B
:1059F00002C041E04EAB2EA03FA008A519A58EE342
:105A0000C82E83ECD82E8EE2E82E89E3F82E1E8A6B
:105A10001F8A188E198ECE8EDF8EE8A2F9A2998188
:105A2000913009F4D4C008F472C0AEADBFAD5E963B
:105A30002D913D914D915C919197933009F0F9C072
:105A4000C701B6010E94AD394B015C0120E030E096
:105A500040E05FE30E94AD399B01AC01B301C2019C
:105A60000E945536A70196010E94AD396AA37BA317
:105A70008CA39DA39B01AC01B101C8010E945536C6
:105A80001B018C0129853D8549895D890E944B3721
:105A900087FD0BC020E030E0A9016AA17BA18CA1A9
:105AA0009DA10E944B3718165CF129853D854989D7
:105AB0005D896EA17FA188A599A50E9455369B019D
:105AC000AC010E9456366B017C019301A2016A8DE4
:105AD0007B8D8C8D9D8D0E9456369B01AC01C7013C
